:10000000CF93DF93CDB7DEB70FEE0DBF07E00EBF86
:1000100003C0DF91CF910895CF93DF93CDB7DEB7C3
:10002000C454D1090FB6F894DEBF0FBECDBF1A82FB
:10003000198226C089819A810E9479029C838B83D0
:100040002B813C818B819C81B9010E940401DC01E0
:10005000CB0129813A81220F331F220F331FAE01BA
:100060004F5F5F4F240F351F2C5F3F4FF901808397
:100070009183A283B38389819A8101969A8389832C
:1000800089819A8180319105ACF2CE01059640E1DB
:1000900050E064E00E9419031A8219823FC08981EE
:1000A0009A81880F991F880F991F9E012F5F3F4FDC
:1000B000820F931F0496FC0120813181428153817C
:1000C00089819A81880F991F880F991FBE016F5FE0
:1000D0007F4F860F971F0496FC0180819181A2813A
:1000E000B381BC01CD010E94CB02DC01CB0129818F
:1000F0003A81220F331F220F331FAE014F5F5F4F34
:10010000240F351F2C5F3F4FF90180839183A28319
:10011000B38389819A8101969A83898389819A819F
:10012000803191050CF4BBCFFFCFCF93DF93CDB7D8
:10013000DEB72A970FB6F894DEBF0FBECDBF9A8701
:10014000898789859A859A8389831C821B82898104
:100150009A81FC0180819181A281B381072E7FE089
:10016000B695A795979587957A95D1F7702D9C01AF
:1001700033278B819C81822B932B9C838B8389815A
:100180009A81FC0180819181A281B381072E77E160
:10019000B695A795979587957A95D1F7702D805448
:1001A0009109A109B1098D839E83AF83B8878D81A1
:1001B0009E81382F22278B819C81822B932B9C83BD
:1001C0008B8389819A81FC0180819181A281B38195
:1001D0008827B7FD83959927AA27BB279C0133273A
:1001E0002695379522278B819C81822B932B9C838C
:1001F0008B838B819C812A960FB6F894DEBF0FBE4D
:10020000CDBFDF91CF910895CF93DF93CDB7DEB708
:1002100028970FB6F894DEBF0FBECDBF9E838D83A7
:1002200078876F838F819885AA2797FDA095BA2F2D
:10023000AC01332722278D819E81AA2797FDA095A7
:10024000BA2F822B932BA42BB52B89839A83AB8354
:10025000BC8389819A81AB81BC81BC01CD01289688
:100260000FB6F894DEBF0FBECDBFDF91CF910895DA
:10027000DF93CF9300D000D07F936F939F938F93A2
:10028000DEB7CDB7112400240A9419161806B9F068
:100290001716160689F090689015800569F0706849
:1002A0007015800561F09717C9F48617B9F49A8123
:1002B0007C81971751F006C09A81898166C09C8124
:1002C0008B8163C090E080E060C09A819F779395B6
:1002D000BBF18A818078982B898157C09A817C8173
:1002E0009F777F77971B99303CF7983F44F3903086
:1002F00011F074F402C0861758F491959E831C8106
:100300000B813A8129811A8309833C832B8301C0A5
:100310009E839A818C8198279078098111E02B81A6
:1003200031E04E81903081F020953095210F311DC4
:1003300004C00894379527954A954030D1F70AC0F4
:100340009A819F678FEF21C003C0369527954A9504
:100350004030D9F7020F131F1130A9F008F406C07E
:100360001695079543951130D9F705C0000F111F59
:100370004A951130D9F79A819F77940F0AF38A81B1
:100380008078982B9A839A81802F2896DEBFCDBFE4
:10039000CF91DF91089540E874270E9438010895B5
:1003A000DF93CF937F936F939F938F9300D0CDB7BD
:1003B000DEB7002411240A9409C0812D912D39C083
:1003C0009C817E8197279F678FEF33C0181619068F
:1003D000A1F31616170689F390689015800581F32E
:1003E00070686015700561F39F777F779F53970F53
:1003F0003BF31AF39A830027112738E091E071E06C
:100400009695879510F4060F171F169507953A9540
:100410003030B1F7060F171F113019F016950795F8
:1004200033959A81930F6C817E8167276078962B34
:10043000802F0F900F900F900F900F900F90CF91F3
:10044000DF910895DF93CF937F936F939F938F9363
:10045000DEB7CDB7112400240A9419161806A1F0AE
:100460001716160649F090689015800529F07068F7
:100470007015600549F00BC09FE78FEF7A816C81A2
:1004800076277078972B2EC0912D812D2BC07F77EA
:100490009F77971B915C83F3BAF31A810C81102725
:1004A0001078912B082F262F11E031E04427552793
:1004B00070E0021713075AF0021B130B0894441F35
:1004C000551F7395000F111F513099F707C0000F8A
:1004D000111F440F551F7395513059F77950971BD1
:1004E0009BF2842F0F900F900F900F90CF91DF9180
:1004F0000895DF93CF939F938F93DEB7CDB71124E9
:1005000019161806C9F000240394192F082F9927EB
:100510008827915C107839F01A8110950095000DAC
:10052000111D906806C01A8104C01695079587951D
:10053000939511160005C9F70F900F90CF91DF9199
:100540000895DF93CF9300D000D09F938F937F9334
:100550006F935F934F933F932F93DEB7CDB79E81F9
:100560008D817A8169810E9438019A87898798856F
:100570008F817C816B810E9438017A8569852C96F8
:10058000DEBFCDBFCF91DF91089500E8502730271F
:100590000E94A1020895DF93CF93DEB7CDB72C97C9
:1005A000DEBFCDBF9F938F937F936F935F934F93E6
:1005B0003F932F93DEB7CDB79C010E94D001988B5B
:1005C0008F8798858F817C816B810E94D0019E8767
:1005D0008D879E818D817C816B810E94D0019C875B
:1005E0008B8798858F817A8169810E94D0019A8753
:1005F000898798898F857E856D850E94CB019C8B2C
:100600008B8B9C858B857A8569850E9438017C89D6
:100610006B896496DEBFCDBFCF91DF91089511271E
:10062000002796958795001F111F6150D1F7C801CB
:100630000895DF93CF9300D000D09F938F937F9343
:100640006F935F934F93DEB7CDB7CA010E946303E8
:1006500098878F8390E081E089879A879A8589853A
:1006600078856F810E940F037A85698568177907FD
:10067000B8F4FE81ED81DF014B8105C0660F771F65
:10068000880F991F46954130C9F7A60FB71FE80F8D
:10069000F91F4B810C91108101931D934150D1F7AB
:1006A00001E069857A85600F711D69877A879A8173
:1006B0008981971799F6861789F62A96DEBFCDBFEE
:1006C000CF91DF910895815090409C018827992710
:1006D0002115310531F03695279501962115310503
:0406E000D1F70895B1
:00000001FF
