:10000000CF93DF93CDB7DEB707EF0DBF07E00EBF8D
:1000100003C0DF91CF910895CF93DF93CDB7DEB7C3
:10002000C456D1090FB6F894DEBF0FBECDBF1D82F6
:100030008FE38E831F82188689ED89878EE38A87F6
:1000400087E88B878DEB8C878AE68D878EE38E879A
:100050008AE68F878EEB888B87E8898B8DE38A8B86
:1000600089ED8B8B8EEB8C8B1D8A1E8A1F8A8FEB02
:10007000888F87E8898F8DEB8A8F89ED8B8F8EEB48
:100080008C8F8AE68D8F8EEB8E8F8AE68F8F8EEB2C
:1000900088A389ED89A38EEB8AA387E88BA38DEBD8
:1000A0008CA31A82198229C089819A810E947702C1
:1000B0009C838B8380E090E00E9477029C018B817F
:1000C0009C81B9010E940201DC01CB0129813A81A6
:1000D000220F331F220F331FAE014F5F5F4F240FDC
:1000E000351F2C5D3F4FF90180839183A283B38339
:1000F00089819A8101969A83898389819A81803145
:10010000910594F2CE01859640E150E064E00E94B2
:100110002703BE016B5F7F4FCE01859624E040E14F
:100120000E948003FFCFCF93DF93CDB7DEB72A972E
:100130000FB6F894DEBF0FBECDBF9A878987898539
:100140009A859A8389831C821B8289819A81FC010A
:1001500080819181A281B381072E7FE0B695A7951A
:10016000979587957A95D1F7702D9C0133278B81D0
:100170009C81822B932B9C838B8389819A81FC01A8
:1001800080819181A281B381072E77E1B695A795F1
:10019000979587957A95D1F7702D80549109A1098B
:1001A000B1098D839E83AF83B8878D819E81382F5F
:1001B00022278B819C81822B932B9C838B8389812B
:1001C0009A81FC0180819181A281B3818827B7FD4A
:1001D00083959927AA27BB279C0133272695379516
:1001E00022278B819C81822B932B9C838B838B81F9
:1001F0009C812A960FB6F894DEBF0FBECDBFDF916B
:10020000CF910895CF93DF93CDB7DEB728970FB680
:10021000F894DEBF0FBECDBF9E838D8378876F833A
:100220008F819885AA2797FDA095BA2FAC01332717
:1002300022278D819E81AA2797FDA095BA2F822B18
:10024000932BA42BB52B89839A83AB83BC838981A1
:100250009A81AB81BC81BC01CD0128960FB6F89480
:10026000DEBF0FBECDBFDF91CF910895DF93CF9357
:1002700000D000D07F936F939F938F93DEB7CDB75D
:10028000112400240A9419161806B9F01716160638
:1002900089F090689015800569F070687015800588
:1002A00061F09717C9F48617B9F49A817C81971782
:1002B00051F006C09A81898166C09C818B8163C0A0
:1002C00090E080E060C09A819F779395BBF18A812E
:1002D0008078982B898157C09A817C819F777F771E
:1002E000971B99303CF7983F44F3903011F074F429
:1002F00002C0861758F491959E831C810B813A8128
:1003000029811A8309833C832B8301C09E839A81B0
:100310008C8198279078098111E02B8131E04E8102
:10032000903081F020953095210F311D04C0089444
:10033000379527954A954030D1F70AC09A819F6733
:100340008FEF21C003C0369527954A954030D9F7E5
:10035000020F131F1130A9F008F406C01695079577
:1003600043951130D9F705C0000F111F4A95113080
:10037000D9F79A819F77940F0AF38A818078982B16
:100380009A839A81802F2896DEBFCDBFCF91DF91CF
:10039000089540E874270E9436010895DF93CF93B3
:1003A0007F936F939F938F9300D0CDB7DEB70024D8
:1003B00011240A9409C0812D912D39C09C817E8120
:1003C00097279F678FEF33C018161906A1F31616EB
:1003D000170689F390689015800581F370686015A1
:1003E000700561F39F777F779F53970F3BF31AF365
:1003F0009A830027112738E091E071E09695879560
:1004000010F4060F171F169507953A953030B1F77F
:10041000060F171F113019F01695079533959A811D
:10042000930F6C817E8167276078962B802F0F90C9
:100430000F900F900F900F900F90CF91DF91089534
:10044000DF93CF937F936F939F938F93DEB7CDB757
:10045000112400240A9419161806A1F0171616067E
:1004600049F090689015800529F070687015600556
:1004700049F00BC09FE78FEF7A816C817627707807
:10048000972B2EC0912D812D2BC07F779F77971BA7
:10049000915C83F3BAF31A810C8110271078912BA9
:1004A000082F262F11E031E04427552770E002176E
:1004B00013075AF0021B130B0894441F551F739522
:1004C000000F111F513099F707C0000F111F440F83
:1004D000551F7395513059F77950971B9BF2842F14
:1004E0000F900F900F900F90CF91DF910895DF93B1
:1004F000CF939F938F93DEB7CDB7112419161806AB
:10050000C9F000240394192F082F99278827915C9C
:10051000107839F01A8110950095000D111D906822
:1005200006C01A8104C016950795879593951116F4
:100530000005C9F70F900F90CF91DF910895FF93B9
:10054000EF93DF93CF93BF93AF9300D000D09F93EF
:100550008F937F936F935F934F933F932F93DEB768
:10056000CDB79E818D817A8169810E9436019A87FB
:10057000898798858F817C816B810E9436017A857D
:1005800069852C96DEBFCDBFAF91BF91CF91DF9132
:10059000EF91FF91089500E8502730270E949F02B5
:1005A0000895FF93EF93DF93CF93BF93AF93DEB79D
:1005B000CDB72C97DEBFCDBF9F938F937F936F9363
:1005C0005F934F933F932F93DEB7CDB79C010E946B
:1005D000CE01988B8F8798858F817C816B810E945B
:1005E000CE019E878D879E818D817C816B810E944B
:1005F000CE019C878B8798858F817A8169810E9443
:10060000CE019A87898798898F857E856D850E941E
:10061000C9019C8B8B8B9C858B857A8569850E9413
:1006200036017C896B896496DEBFCDBFAF91BF91E7
:10063000CF91DF91EF91FF910895112700279695B3
:100640008795001F111F6150D1F7C8010895DF93EE
:10065000CF9300D000D09F938F937F936F935F933E
:100660004F93DEB7CDB7CA010E94710398878F837D
:1006700090E081E089879A879A85898578856F815E
:100680000E941D037A85698568177907B8F4FE8191
:10069000ED81DF014B8105C0660F771F880F991F21
:1006A00046954130C9F7A60FB71FE80FF91F4B81D8
:1006B0000C91108101931D934150D1F701E06985A0
:1006C0007A85600F711D69877A879A81898197176A
:1006D00099F6861789F62A96DEBFCDBFCF91DF91B6
:1006E0000895815090409C01882799272115310554
:1006F00031F036952795019621153105D1F70895EA
:10070000DF93CF9300D000D000D000D09F938F9381
:100710007F936F935F934F933F932F93DEB7CDB744
:1007200022242394332444245B80652C569426147D
:1007300059F13614F9F0FE81ED81952D842D899FB4
:10074000000C111C000C111CE00DF11D1124608126
:10075000718182819381AA27BB27A30DB11DA40DAE
:10076000B11DAA0FBB1FAA0FBB1FF885EF81AE0FEB
:10077000BF1F01C034C0E22DFF27EE0FFF1FEE0F99
:10078000FF1FEA0FFB1F01C02BC020813181428176
:1007900053810E94D102988B8F877E876D872D9120
:1007A0003D914D915C915C874B873A8729871397E0
:1007B0000E949F026D937D938D939C9313979C85CC
:1007C0008B857A85698553814281318120810E94A0
:1007D000CB029383828371836083220C320CA7CF78
:0C07E0002896DEBFCDBFCF91DF910895B9
:00000001FF
