:10000000CF93DF93CDB7DEB70FEE0DBF07E00EBF86
:1000100003C0DF91CF910895CF93DF93CDB7DEB7C3
:10002000C458D1090FB6F894DEBF0FBECDBF80E132
:1000300090E09C838B838B819C810E9421039C8315
:100040008B831A82198214C029813A8189819A810D
:10005000880F991FAE014F5F5F4F840F951F049665
:10006000FC013183208389819A8101969A83898357
:1000700089819A81803491053CF3CE01059640E454
:1000800050E062E00E949F02FFCFCF93DF93CDB795
:10009000DEB72A970FB6F894DEBF0FBECDBF9A87A2
:1000A000898789859A859A8389831C821B828981A5
:1000B0009A81FC0180819181A281B381072E7FE02A
:1000C000B695A795979587957A95D1F7702D9C0150
:1000D00033278B819C81822B932B9C838B838981FB
:1000E0009A81FC0180819181A281B381072E77E101
:1000F000B695A795979587957A95D1F7702D8054E9
:100100009109A109B1098D839E83AF83B8878D8141
:100110009E81382F22278B819C81822B932B9C835D
:100120008B8389819A81FC0180819181A281B38135
:100130008827B7FD83959927AA27BB279C013327DA
:100140002695379522278B819C81822B932B9C832C
:100150008B838B819C812A960FB6F894DEBF0FBEED
:10016000CDBFDF91CF910895CF93DF93CDB7DEB7A9
:1001700028970FB6F894DEBF0FBECDBF9E838D8348
:1001800078876F838F819885AA2797FDA095BA2FCE
:10019000AC01332722278D819E81AA2797FDA09548
:1001A000BA2F822B932BA42BB52B89839A83AB83F5
:1001B000BC8389819A81AB81BC81BC01CD01289629
:1001C0000FB6F894DEBF0FBECDBFDF91CF9108957B
:1001D000DF93CF9300D000D07F936F939F938F9343
:1001E000DEB7CDB7112400240A9419161806B9F009
:1001F0001716160689F090689015800569F07068EA
:100200007015800561F09717C9F48617B9F49A81C3
:100210007C81971751F006C09A81898166C09C81C4
:100220008B8163C090E080E060C09A819F77939556
:10023000BBF18A818078982B898157C09A817C8113
:100240009F777F77971B99303CF7983F44F3903026
:1002500011F074F402C0861758F491959E831C81A6
:100260000B813A8129811A8309833C832B8301C046
:100270009E839A818C8198279078098111E02B8147
:1002800031E04E81903081F020953095210F311D65
:1002900004C00894379527954A954030D1F70AC095
:1002A0009A819F678FEF21C003C0369527954A95A5
:1002B0004030D9F7020F131F1130A9F008F406C01F
:1002C0001695079543951130D9F705C0000F111FFA
:1002D0004A951130D9F79A819F77940F0AF38A8152
:1002E0008078982B9A839A81802F2896DEBFCDBF85
:1002F000CF91DF91089540E874270E94E8000895A7
:10030000DF93CF937F936F939F938F9300D0CDB75D
:10031000DEB7002411240A9409C0812D912D39C023
:100320009C817E8197279F678FEF33C0181619062F
:10033000A1F31616170689F390689015800581F3CE
:1003400070686015700561F39F777F779F53970FF3
:100350003BF31AF39A830027112738E091E071E00C
:100360009695879510F4060F171F169507953A95E1
:100370003030B1F7060F171F113019F01695079599
:1003800033959A81930F6C817E8167276078962BD5
:10039000802F0F900F900F900F900F900F90CF9194
:1003A000DF910895DF93CF937F936F939F938F9304
:1003B000DEB7CDB7112400240A9419161806A1F04F
:1003C0001716160649F090689015800529F0706898
:1003D0007015600549F00BC09FE78FEF7A816C8143
:1003E00076277078972B2EC0912D812D2BC07F778B
:1003F0009F77971B915C83F3BAF31A810C811027C6
:100400001078912B082F262F11E031E04427552733
:1004100070E0021713075AF0021B130B0894441FD5
:10042000551F7395000F111F513099F707C0000F2A
:10043000111F440F551F7395513059F77950971B71
:100440009BF2842F0F900F900F900F90CF91DF9120
:100450000895DF93CF9300D000D09F938F937F9325
:100460006F935F934F933F932F93DEB7CDB79E81EA
:100470008D817A8169810E94E8009A8789879885B1
:100480008F817C816B810E94E8007A8569852C963A
:10049000DEBFCDBFCF91DF91089500E85027302710
:1004A0000E9429020895DF93CF93DEB7CDB72C9732
:1004B000DEBFCDBF9F938F937F936F935F934F93D7
:1004C0003F932F93DEB7CDB7932F822F0E948001E9
:1004D000988B8F8798858F817C816B810E948001AA
:1004E0009E878D879E818D817C816B810E9480019A
:1004F0009C878B8798858F817A8169810E94800192
:100500009A87898798898F857E856D850E947B0172
:100510009C8B8B8B9C858B857A8569850E94E800F6
:100520007C896B896496DEBFCDBFCF91DF91089542
:1005300000278695001F6A95E1F7802F0895DF93C5
:10054000CF93DEB7CDB700240394042F152F0616E2
:10055000170631F0262F2695000F111F2130D9F7ED
:10056000C01BD10BDEBFCDBFC395C11DDF93CF93A1
:1005700000D000D000D09F938F937F936F935F93B1
:100580004F93DEB7CDB71C870B8718861F821A8161
:100590000981222733270150104004C01695079582
:1005A000200D311D10161106C9F73A872987988545
:1005B0008F817A8569850E94980218850F81392F6D
:1005C000282F5C814B8106C0000F111F220F331FA3
:1005D0005695479504161506B9F7BE85AD85FE817B
:1005E000ED81A00FB11FE20FF31F1C810B81219140
:1005F0002D930150104010161106C9F718850F8170
:10060000000D111D3A8129812017310719F0188733
:100610000F83CDCFBE85AD85FE81ED811C850B8519
:100620002D9121930150104010161106C9F71C8519
:100630000B852E96C00FD11FDEBFCDBFCF91DF91AE
:10064000089500240394772766278150904004C0C2
:1006500096958795600D711D18161906C9F7862F96
:04066000972F089533
:02066400FF078E
:00000001FF
