:10000000CF93DF93CDB7DEB707EF0DBF07E00EBF8D
:1000100003C0DF91CF910895CF93DF93CDB7DEB7C3
:10002000C45CD1090FB6F894DEBF0FBECDBF1D82F0
:100030008FE38E831F82188686EF89878EE38A87F7
:100040008FE88B878CEB8C8789ED8D878EE38E878D
:1000500087E88F878DEB888B89EA898B8EE38A8B83
:100060008CE18B8B8EEB8C8B8AE68D8B8EE38E8B6B
:100070008AE68F8B8EEB888F8CE1898F8EE38A8F57
:1000800089EA8B8F8EEB8C8F87E88D8F8DE38E8F37
:1000900089ED8F8F8EEB88A38FE889A38CE38AA3E9
:1000A00086EF8BA38EEB8CA31DA21EA21FA28FEB4B
:1000B00088A78FE889A78CEB8AA786EF8BA78EEBA2
:1000C0008CA787E88DA78DEB8EA789ED8FA78EEB88
:1000D00088AB8CE189AB8EEB8AAB89EA8BAB8EEB7C
:1000E0008CAB8AE68DAB8EEB8EAB8AE68FAB8EEB5C
:1000F00088AF89EA89AF8EEB8AAF8CE18BAF8EEB4C
:100100008CAF89ED8DAF8EEB8EAF87E88FAF2DEB87
:10011000CE01805C9F4FFC012083CE018F5B9F4FFF
:1001200026EFFC012083CE018E5B9F4F2EEBFC015E
:100130002083CE018D5B9F4F2FE8FC012083CE01F1
:100140008C5B9F4F2CEBFC0120831A82198227C005
:1001500089819A810E94DC029C838B8380E090E0FD
:100160000E94DC029C018B819C81B9010E94640188
:10017000DC01CB01AE014B5B5F4F29813A81220F3D
:10018000331F220F331F240F351FF9018083918302
:10019000A283B38389819A8101969A838983898115
:1001A0009A8180329105A4F2CE018B5B9F4F40E291
:1001B00050E064E00E949203BE016B5F7F4FCE016E
:1001C0008B5B9F4F20E040E20E94EB03CE018B5BF4
:1001D0009F4FFC0184819581A681B781BC01CD012F
:1001E0000E946F049C838B83FFCFCF93DF93CDB7A7
:1001F000DEB72A970FB6F894DEBF0FBECDBF9A8741
:10020000898789859A859A8389831C821B82898143
:100210009A81FC0180819181A281B381072E7FE0C8
:10022000B695A795979587957A95D1F7702D9C01EE
:1002300033278B819C81822B932B9C838B83898199
:100240009A81FC0180819181A281B381072E77E19F
:10025000B695A795979587957A95D1F7702D805487
:100260009109A109B1098D839E83AF83B8878D81E0
:100270009E81382F22278B819C81822B932B9C83FC
:100280008B8389819A81FC0180819181A281B381D4
:100290008827B7FD83959927AA27BB279C01332779
:1002A0002695379522278B819C81822B932B9C83CB
:1002B0008B838B819C812A960FB6F894DEBF0FBE8C
:1002C000CDBFDF91CF910895CF93DF93CDB7DEB748
:1002D00028970FB6F894DEBF0FBECDBF9E838D83E7
:1002E00078876F838F819885AA2797FDA095BA2F6D
:1002F000AC01332722278D819E81AA2797FDA095E7
:10030000BA2F822B932BA42BB52B89839A83AB8393
:10031000BC8389819A81AB81BC81BC01CD012896C7
:100320000FB6F894DEBF0FBECDBFDF91CF91089519
:10033000DF93CF9300D000D07F936F939F938F93E1
:10034000DEB7CDB7112400240A9419161806B9F0A7
:100350001716160689F090689015800569F0706888
:100360007015800561F09717C9F48617B9F49A8162
:100370007C81971751F006C09A81898166C09C8163
:100380008B8163C090E080E060C09A819F779395F5
:10039000BBF18A818078982B898157C09A817C81B2
:1003A0009F777F77971B99303CF7983F44F39030C5
:1003B00011F074F402C0861758F491959E831C8145
:1003C0000B813A8129811A8309833C832B8301C0E5
:1003D0009E839A818C8198279078098111E02B81E6
:1003E00031E04E81903081F020953095210F311D04
:1003F00004C00894379527954A954030D1F70AC034
:100400009A819F678FEF21C003C0369527954A9543
:100410004030D9F7020F131F1130A9F008F406C0BD
:100420001695079543951130D9F705C0000F111F98
:100430004A951130D9F79A819F77940F0AF38A81F0
:100440008078982B9A839A81802F2896DEBFCDBF23
:10045000CF91DF9108951716160611F040E8742722
:100460000E9498010895DF93CF937F936F939F939A
:100470008F9300D0CDB7DEB7002411240A9409C0B1
:10048000812D912D39C09C817E8197279F678FEFA9
:1004900033C018161906A1F31616170689F39068CB
:1004A0009015800581F370686015700561F39F7782
:1004B0007F779F53970F3BF31AF39A8300271127F7
:1004C00038E091E071E09695879510F4060F171FBC
:1004D000169507953A953030B1F7060F171F113072
:1004E00019F01695079533959A81930F6C817E814B
:1004F00067276078962B802F0F900F900F900F90AA
:100500000F900F90CF91DF910895DF93CF937F935A
:100510006F939F938F93DEB7CDB7112400240A9475
:1005200019161806A1F01716160649F090689015CE
:10053000800529F070687015600549F00BC09FE7D1
:100540008FEF7A816C8176277078972B2EC0912D52
:10055000812D2BC07F779F77971B915C83F3BAF334
:100560001A810C8110271078912B082F262F11E06B
:1005700031E04427552770E0021713075AF0021B99
:10058000130B0894441F551F7395000F111F513012
:1005900099F707C0000F111F440F551F7395513075
:1005A00059F77950971B9BF2842F0F900F900F9063
:1005B0000F90CF91DF910895DF93CF939F938F9307
:1005C000DEB7CDB7112419161806C9F0002403941C
:1005D000192F082F99278827915C107839F01A81F4
:1005E00010950095000D111D906806C01A8104C079
:1005F000169507958795939511160005C9F70F90E5
:100600000F90CF91DF910895FF93EF93DF93CF93F6
:10061000BF93AF9300D000D09F938F937F936F933E
:100620005F934F933F932F93DEB7CDB79E818D811C
:100630007A8169810E9498019A87898798858F813C
:100640007C816B810E9498017A8569852C96DEBF3A
:10065000CDBFAF91BF91CF91DF91EF91FF91089501
:1006600000E81516140609F050271316120609F0B3
:1006700030270E9404030895FF93EF93DF93CF93F5
:10068000BF93AF93DEB7CDB72C97DEBFCDBF9F939F
:100690008F937F936F935F934F933F932F93DEB727
:1006A000CDB7C9010E943302988B8F8798858F81BF
:1006B0007C816B810E9433029E878D879E818D8114
:1006C0007C816B810E9433029C878B8798858F8108
:1006D0007A8169810E9433029A87898798898F85F8
:1006E0007E856D850E942B029C8B8B8B9C858B85D8
:1006F0007A8569850E9498017C896B896496DEBF42
:10070000CDBFAF91BF91CF91DF91EF91FF91089550
:100710001127002796958795001F111F6150D1F76B
:10072000C8010895DF93CF9300D000D09F938F939B
:100730007F936F935F934F93DEB7CDB7CA010E944B
:10074000DC0398878F8390E081E089879A879A8578
:10075000898578856F810E9488037A856985681705
:100760007907B8F4FE81ED81DF014B8105C0660F8A
:10077000771F880F991F46954130C9F7A60FB71FFD
:10078000E80FF91F4B810C91108101931D9341508B
:10079000D1F701E069857A85600F711D69877A87D5
:1007A0009A818981971799F6861789F62A96DEBF6E
:1007B000CDBFCF91DF910895815090409C01882753
:1007C00099272115310531F0369527950196211588
:1007D0003105D1F70895DF93CF9300D000D000D03A
:1007E00000D09F938F937F936F935F934F933F932B
:1007F0002F93DEB7CDB7222423946B80261469F1A2
:10080000562C56943324361449F14424421439F1B9
:10081000942D852D899F000C111C000C111CFE814C
:10082000ED81E00DF11D1124938182817181608140
:10083000B885AF81032D1127040D000F111F000F84
:10084000111FA00FB11FFD01022D1127000F111F55
:10085000000F111FE00FF11F03C03BC02FC029C0C4
:1008600053814281318120810E943C03988B8F8784
:100870007E876D872D913D914D915C9113975C879B
:100880004B873A8729870E9404036D937D938D934C
:100890009C939C858B857A85698558894F853E8593
:1008A0002D850E94300393838283718360834394F8
:1008B000ADCF022C000C300C3614A5CF220C261420
:1008C00041F0562C022C02C0569406940114E1F714
:1008D00099CF6096DEBFCDBFCF91DF910895FF9392
:1008E000EF93DF93CF9300D07F936F93DEB7CDB7B5
:1008F000BC010E9433029C838B839A818981BC0155
:100900000E9433027C816B810E9498010E949104B5
:100910000F900F900F900F90CF91DF91EF91FF917B
:100920000895969587957FE16CE6860F971F089549
:00000001FF
