:100000000C9434000C945E000C945F000C9460001F
:100010000C9461000C9462000C9463000C946400D6
:100020000C9465000C9466000C9467000C946800B6
:100030000C9469000C946A000C946B000C946C0096
:100040000C946D000C946E000C945D000C946F0089
:100050000C9470000C9471000C9498000C9499000E
:100060000C949A000C949B0002EF0DBF07E00EBFAA
:100070000FEF04B90FEF0AB990E081E90E9435054E
:100080000E9446000E9450000C948E0502E004BDC0
:1000900002E005BD01E307BD02E000936E00089594
:1000A0000DEF00937A0003E000937B0000E60093DD
:1000B0007C000EEF00937E00089518951895189512
:1000C00018951895189518951895189518951895C8
:1000D00018951895189518951895189518951895B8
:1000E00018950F932F933F93EF93FF930FB70F93B1
:1000F000009179002091F507322FE091F607F091F9
:10010000F707220F220FE20FF11D00830182028206
:10011000038233953093F507303411F400E005BDC8
:100120000F910FBFFF91EF913F912F910F91189574
:100130001895189518951895FF93EF93DF93CF9323
:100140006F93DEB7CDB7FC016081718182819381AD
:100150000E94E60080839183128213823496698123
:1001600061506983603081F70F90CF91DF91EF91FB
:10017000FF910895FF93EF93DF93CF93BF93AF93D6
:1001800000D000D09F938F937F936F935F934F9393
:100190003F932F93DEB7CDB79E818D817A816981A0
:1001A0000E944C039A87898798858F817C816B8117
:1001B0000E944C037A8569852C96DEBFCDBFAF9136
:1001C000BF91CF91DF91EF91FF9108951916180615
:1001D0001706160609F1FF93EF93DF93CF9300D034
:1001E0007F936F93DEB7CDB7BC010E943C049C8324
:1001F0008B839A818981BC010E943C047C816B8144
:100200000E944C030E948E040F900F900F900F904D
:10021000CF91DF91EF91FF910895FF93EF93DF93DB
:10022000CF93BF93AF93DEB7CDB72C97DEBFCDBFD3
:100230009F938F937F936F935F934F933F932F93EE
:10024000DEB7CDB7C9010E943C04988B8F87988593
:100250008F817C816B810E943C049E878D879E816B
:100260008D817C816B810E943C049C878B87988563
:100270008F817A8169810E943C049A878987988955
:100280008F857E856D850E9495049C8B8B8B9C85CC
:100290008B857A8569850E944C037C896B8964967D
:1002A000DEBFCDBFAF91BF91CF91DF91EF91FF91B5
:1002B000089500E81516140609F0502713161206C3
:1002C00009F030270E94BA000895FF93EF93DF935F
:1002D000CF936F93DEB7CDB7FC01918180810E94EF
:1002E000C704918380833496998191509983A9F7AB
:1002F0000F90CF91DF91EF91FF910895FF93EF93CE
:10030000DF93CF936F93DEB7CDB7FC0180819181EE
:100310000E94F504808391836981615069833496DA
:100320006030A1F70F90CF91DF91EF91FF91089589
:10033000FF93EF93DF93CF93FC01EB0146954A9532
:10034000349600811881019F108211241981019F28
:10035000118211241A81019F12821124349623964E
:10036000415079F7CF91DF91EF91FF910895FF937D
:10037000EF93DF93CF93BF93AF9300D000D000D023
:1003800000D09F938F937F936F935F934F933F938F
:100390002F93DEB7CDB7222423946B80261469F106
:1003A000562C56943324361449F14424421439F11E
:1003B000942D852D899F000C111C000C111CFE81B1
:1003C000ED81E00DF11D11249381828171816081A5
:1003D000B885AF81032D1127040D000F111F000FE9
:1003E000111FA00FB11FFD01022D1127000F111FBA
:1003F000000F111FE00FF11F03C03BC02FC029C029
:1004000053814281318120810E940D01988B8F8719
:100410007E876D872D913D914D915C9113975C87FF
:100420004B873A8729870E94BA006D937D938D93FD
:100430009C939C858B857A85698558894F853E85F7
:100440002D850E9459019383828371836083439435
:10045000ADCF022C000C300C3614A5CF220C261484
:1004600041F0562C022C02C0569406940114E1F778
:1004700099CF6096DEBFCDBFAF91BF91CF91DF9195
:10048000EF91FF910895815090409C018827992712
:100490002115310531F03695279501962115310545
:1004A000D1F70895FF93EF93DF93CF9300D000D05F
:1004B0009F938F937F936F935F934F93DEB7CDB7E7
:1004C000CA010E94430298878F8390E081E0898768
:1004D0009A879A85898578856F810E94A0027A859E
:1004E000698568177907B8F4FE81ED81DF014B81DA
:1004F00005C0660F771F880F991F46954130C9F7D1
:10050000A60FB71FE80FF91F4B810C9110810193C3
:100510001D934150D1F701E069857A85600F711D07
:1005200069877A879A818981971799F6861789F65C
:100530002A96DEBFCDBFCF91DF91EF91FF91089555
:100540001127002796958795001F111F6150D1F73D
:10055000C80108957894089502E005BD789408953F
:100560000C94E4020C940E030C940F030C941003EF
:100570000C9411030C9412030C9413030C941403A5
:100580000C9415030C9416030C9417030C94180385
:100590000C9419030C941A030C941B030C941C0365
:1005A0000C941D030C941E030C940D030C941F0358
:1005B0000C9420030C9421030C9448030C944903DD
:1005C0000C944A030C944B0302EF0DBF07E00EBFDF
:1005D0000FEF04B90FEF0AB990E081E90E943505E9
:1005E0000E94F6020E9400030C948E0502E004BDF6
:1005F00002E005BD01E307BD02E000936E0008952F
:100600000DEF00937A0003E000937B0000E6009377
:100610007C000EEF00937E000895189518951895AC
:100620001895189518951895189518951895189562
:100630001895189518951895189518951895189552
:1006400018950F932F933F93EF93FF930FB70F934B
:10065000009179002091F507322FE091F607F09193
:10066000F707220F220FE20FF11D008301820282A1
:10067000038233953093F507303411F400E005BD63
:100680000F910FBFFF91EF913F912F910F9118950F
:100690001895189518951895DF93CF9300D000D032
:1006A0007F936F939F938F93DEB7CDB71124002470
:1006B0000A9419161806B9F01716160689F09068EC
:1006C0009015800569F070687015800561F09717C6
:1006D000C9F48617B9F49A817C81971751F006C046
:1006E0009A8189816CC09C818B8169C090E080E097
:1006F00066C09A819F779395BBF18A818078982B09
:1007000089815DC09A817C819F777F77971B993023
:100710003CF7983F44F3903011F074F402C0861710
:1007200058F491959E831C810B813A8129811A830B
:1007300009833C832B8301C09E839A818C819827F7
:100740009078098111E02B8131E04E81903081F069
:1007500020953095210F311D04C0089437952795B9
:100760004A954030D1F70AC09A819F678FEF27C022
:1007700003C0369527954A954030D9F7020F131FCD
:100780001130D9F008F409C01116100671F0169551
:10079000079543951130C1F708C01116100629F0CE
:1007A000000F111F4A951130C1F79A819F77940F5E
:1007B000DAF28A818078982B9A839A81802F289602
:1007C000DEBFCDBFCF91DF910895DF93CF937F93AD
:1007D0006F939F938F93DEB7CDB7112400240A94B3
:1007E00019161806A1F01716160649F0906890150C
:1007F000800529F070687015600549F00BC09FE70F
:100800008FEF7A816C8176277078972B2EC0912D8F
:10081000812D2BC07F779F77971B915C83F3BAF371
:100820001A810C8110271078912B082F262F11E0A8
:1008300031E04427552770E0021713075AF0021BD6
:10084000130B0894441F551F7395000F111F51304F
:1008500099F707C0000F111F440F551F73955130B2
:1008600059F77950971B9BF2842F0F900F900F90A0
:100870000F90CF91DF910895DF93CF937F936F9384
:100880009F938F9300D0CDB7DEB7002411240A9434
:1008900009C0812D912D39C09C817E8197279F674A
:1008A0008FEF33C018161906A1F31616170689F331
:1008B00090689015800581F370686015700561F38C
:1008C0009F777F779F53970F3BF31AF39A83002705
:1008D000112738E091E071E09695879510F4060FA6
:1008E000171F169507953A953030B1F7060F171F69
:1008F000113019F01695079533959A81930F6C81F5
:100900007E8167276078962B802F0F900F900F9035
:100910000F900F900F90CF91DF9108959695879546
:100920007FE16CE6860F971F08951716160611F0E3
:1009300040E874270E944C030895DF93CF939F9360
:100940008F93DEB7CDB7082F11E09F77975498307B
:1009500034F4983F3CF09923A1F082F009C09FEF56
:100960008FEF10C0992799270DC0000F111F9A957E
:100970009923D9F706C01695079593959923D9F72A
:1009800000C0C8010F900F90CF91DF910895DF93C1
:10099000CF939F938F93DEB7CDB7082F11E09F774A
:1009A0009754923034F4983F3CF09923A1F082F0B0
:1009B00009C090E08FEF14C09927882711C0000F5D
:1009C000111F9A959923D9F706C016950795939507
:1009D0009923D9F700C0C801969587959695879574
:1009E0000F900F90CF91DF910895DF93CF939F9356
:1009F0008F93DEB7CDB7112419161806C9F000245D
:100A00000394192F082F99278827915C107839F0C3
:100A10001A8110950095000D111D906806C01A816D
:100A200004C0169507958795939511160005C9F78B
:100A30000F900F90CF91DF910895FF93EF93DF9385
:100A4000CF9366956150FC013496F8949281818130
:100A500070810E94470534966150C1F70E94850558
:100A6000CF91DF91EF91FF910895BF93AF93DC0198
:100A700006C090E080E070E00E94470511971B16C9
:100A80001A06D1F70E948505AF91BF91089548E0FD
:100A9000770F18F00E94660502C00E9473054A9500
:100AA000B9F748E0880F18F00E94660502C00E945E
:100AB00073054A95B9F748E0990F18F00E9466054A
:100AC00002C00E9473054A95B9F7089550E85BB9D2
:100AD0000000000000000000000050E05BB90000D2
:100AE00000000000089550E85BB90000000000001D
:100AF000000000000000000000000000000050E0C6
:100B00005BB900000000000008950BB10F770BB92E
:100B10000BE10A95F1F7000000000895CF93DF93F1
:100B2000CDB7DEB7C35ED1400FB6F894DEBF0FBEBF
:100B3000CDBF86EF97E09A83898385EF97E09C830A
:100B40008B8383EF97E09E838D8389819A819E01B9
:100B5000295F3F4FFC01318320838D819E819E015F
:100B6000295F3E4FFC0131832083CE018C599E4F7B
:100B7000FC011082CE018C599E4F2FE3FC01218392
:100B8000CE018C599E4FFC011282CE018C599E4F92
:100B9000FC011382CE018C599E4F2DEFFC01248362
:100BA000CE018C599E4F2EE3FC012583CE018C593A
:100BB0009E4F21E9FC012683CE018C599E4F2BEBE1
:100BC000FC012783CE018C599E4F26EFFC01208724
:100BD000CE018C599E4F2EE3FC012187CE018C590A
:100BE0009E4F2FE8FC012287CE018C599E4F2CEBA3
:100BF000FC012387CE018C599E4F29EEFC012487EE
:100C0000CE018C599E4F2EE3FC012587CE018C59D5
:100C10009E4F29E2FC012687CE018C599E4F2DEB79
:100C2000FC012787CE018C599E4F29EDFC01208BBA
:100C3000CE018C599E4F2EE3FC01218BCE018C59A5
:100C40009E4F27E8FC01228BCE018C599E4F2DEB45
:100C5000FC01238BCE018C599E4F23ECFC01248B8D
:100C6000CE018C599E4F2EE3FC01258BCE018C5971
:100C70009E4F22EEFC01268BCE018C599E4F2DEB10
:100C8000FC01278BCE018C599E4F29EAFC01208F55
:100C9000CE018C599E4F2EE3FC01218FCE018C5941
:100CA0009E4F2CE1FC01228FCE018C599E4F2EEBE2
:100CB000FC01238FCE018C599E4F2BE8FC01248F21
:100CC000CE018C599E4F2EE3FC01258FCE018C590D
:100CD0009E4F24E4FC01268FCE018C599E4F2EEBB3
:100CE000FC01278FCE018C599E4F2AE6FC0120A3E0
:100CF000CE018C599E4F2EE3FC0121A3CE018C59CD
:100D00009E4F2AE6FC0122A3CE018C599E4F2EEB6A
:100D1000FC0123A3CE018C599E4F24E4FC0124A3A3
:100D2000CE018C599E4F2EE3FC0125A3CE018C5998
:100D30009E4F2BE8FC0126A3CE018C599E4F2EEB33
:100D4000FC0127A3CE018C599E4F2CE1FC0120A76A
:100D5000CE018C599E4F2EE3FC0121A7CE018C5968
:100D60009E4F29EAFC0122A7CE018C599E4F2EEB03
:100D7000FC0123A7CE018C599E4F22EEFC0124A733
:100D8000CE018C599E4F2DE3FC0125A7CE018C5935
:100D90009E4F23ECFC0126A7CE018C599E4F2EEBD3
:100DA000FC0127A7CE018C599E4F27E8FC0120AB00
:100DB000CE018C599E4F2DE3FC0121ABCE018C5905
:100DC0009E4F29EDFC0122ABCE018C599E4F2EEB9C
:100DD000FC0123ABCE018C599E4F29E2FC0124ABD0
:100DE000CE018C599E4F2DE3FC0125ABCE018C59D1
:100DF0009E4F29EEFC0126ABCE018C599E4F2EEB67
:100E0000FC0127ABCE018C599E4F2FE8FC0120AF8F
:100E1000CE018C599E4F2CE3FC0121AFCE018C59A1
:100E20009E4F26EFFC0122AFCE018C599E4F2EEB38
:100E3000FC0123AFCE018C599E4F21E9FC0124AF68
:100E4000CE018C599E4F2BE3FC0125AFCE018C596E
:100E50009E4F2DEFFC0126AFCE018C599E4F2EEBFD
:100E6000FC0127AFCE018C599E4F805C9F4FFC0147
:100E70001082CE018C599E4F8F5B9F4FFC011082D8
:100E8000CE018C599E4F8E5B9F4FFC011082CE018C
:100E90008C599E4F8D5B9F4F2FEBFC012083CE0121
:100EA0008C599E4F8C5B9F4F21E9FC012083CE0122
:100EB0008C599E4F8B5B9F4F2BEBFC012083CE0107
:100EC0008C599E4F8A5B9F4F2DEFFC012083CE01F2
:100ED0008C599E4F895B9F4F2EEBFC012083CE01E6
:100EE0008C599E4F885B9F4F2FE8FC012083CE01D9
:100EF0008C599E4F875B9F4F2CEBFC012083CE01CA
:100F00008C599E4F865B9F4F26EFFC012083CE01BC
:100F10008C599E4F855B9F4F2EEBFC012083CE01A9
:100F20008C599E4F845B9F4F29E2FC012083CE01A8
:100F30008C599E4F835B9F4F2DEBFC012083CE018C
:100F40008C599E4F825B9F4F29EEFC012083CE017E
:100F50008C599E4F815B9F4F2EEBFC012083CE016D
:100F60008C599E4F805B9F4F27E8FC012083CE0168
:100F70008C599E4F8F5A9F4F2DEBFC012083CE0141
:100F80008C599E4F8E5A9F4F29EDFC012083CE0134
:100F90008C599E4F8D5A9F4F2EEBFC012083CE0122
:100FA0008C599E4F8C5A9F4F22EEFC012083CE011C
:100FB0008C599E4F8B5A9F4F2DEBFC012083CE0105
:100FC0008C599E4F8A5A9F4F23ECFC012083CE01FF
:100FD0008C599E4F895A9F4F2EEBFC012083CE01E6
:100FE0008C599E4F885A9F4F2CE1FC012083CE01E3
:100FF0008C599E4F875A9F4F2EEBFC012083CE01C8
:101000008C599E4F865A9F4F29EAFC012083CE01BE
:101010008C599E4F855A9F4F2EEBFC012083CE01A9
:101020008C599E4F845A9F4F24E4FC012083CE01AB
:101030008C599E4F835A9F4F2EEBFC012083CE018B
:101040008C599E4F825A9F4F2BE8FC012083CE0182
:101050008C599E4F815A9F4F2EEBFC012083CE016D
:101060008C599E4F805A9F4F2AE6FC012083CE0167
:101070008C599E4F8F599F4F2EEBFC012083CE0140
:101080008C599E4F8E599F4F2AE6FC012083CE013A
:101090008C599E4F8D599F4F2EEBFC012083CE0122
:1010A0008C599E4F8C599F4F2BE8FC012083CE0119
:1010B0008C599E4F8B599F4F2EEBFC012083CE0104
:1010C0008C599E4F8A599F4F24E4FC012083CE0106
:1010D0008C599E4F89599F4F2EEBFC012083CE01E6
:1010E0008C599E4F88599F4F29EAFC012083CE01DD
:1010F0008C599E4F87599F4F2EEBFC012083CE01C8
:101100008C599E4F86599F4F2CE1FC012083CE01C4
:101110008C599E4F85599F4F2EEBFC012083CE01A9
:101120008C599E4F84599F4F23ECFC012083CE01A4
:101130008C599E4F83599F4F2EEBFC012083CE018B
:101140008C599E4F82599F4F22EEFC012083CE0185
:101150008C599E4F81599F4F2DEBFC012083CE016E
:101160008C599E4F80599F4F29EDFC012083CE0161
:101170008C599E4F8F589F4F2EEBFC012083CE0140
:101180008C599E4F8E589F4F27E8FC012083CE013B
:101190008C599E4F8D589F4F2DEBFC012083CE0123
:1011A0008C599E4F8C589F4F29EEFC012083CE0115
:1011B0008C599E4F8B589F4F2EEBFC012083CE0104
:1011C0008C599E4F8A589F4F29E2FC012083CE0103
:1011D0008C599E4F89589F4F2DEBFC012083CE01E7
:1011E0008C599E4F88589F4F26EFFC012083CE01DB
:1011F0008C599E4F87589F4F2EEBFC012083CE01C8
:101200008C599E4F86589F4F2FE8FC012083CE01BA
:101210008C599E4F85589F4F2CEBFC012083CE01AB
:101220008C599E4F84589F4F2DEFFC012083CE0197
:101230008C599E4F83589F4F2EEBFC012083CE018B
:101240008C599E4F82589F4F21E9FC012083CE018B
:101250008C599E4F81589F4F2BEBFC012083CE0170
:10126000895F9E4F21E0FC012083CE01895F9E4F64
:101270002EEFFC012183CE01895F9E4FFC0112827B
:10128000CE01895F9E4F2AE1FC012383CE01895F55
:101290009E4F25EEFC012483CE01895F9E4FFC0109
:1012A0001582CE01895F9E4F23E3FC012683CE0188
:1012B000895F9E4F2CECFC012783CE01895F9E4FF6
:1012C000FC011086CE01895F9E4F2CE4FC01218732
:1012D000CE01895F9E4F23EBFC012287CE01895FFF
:1012E0009E4FFC011386CE01895F9E4F25E6FC01CF
:1012F0002487CE01895F9E4F2AE9FC012587CE0114
:10130000895F9E4FFC011686CE01895F9E4F2EE7B6
:10131000FC012787CE01895F9E4F21E8FC01208BCD
:10132000CE01895F9E4FFC01118ACE01895F9E4FDD
:1013300027E9FC01228BCE01895F9E4F28E6FC0144
:10134000238BCE01895F9E4FFC01148ACE01895FF9
:101350009E4F20EBFC01258BCE01895F9E4F2FE431
:10136000FC01268BCE01895F9E4FFC01178ACE01BE
:10137000895F9E4F29ECFC01208FCE01895F9E4F33
:1013800026E3FC01218FCE01895F9E4FFC01128E66
:10139000CE01895F9E4F22EEFC01238FCE01895F33
:1013A0009E4F2DE1FC01248FCE01895F9E4FFC01F1
:1013B000158ECE01895F9E4F2BEFFC01268FCE014B
:1013C000895F9E4F24E0FC01278FCE01895F9E4FED
:1013D000FC0110A2CE01895F9E4F2AEEFC0121A3E1
:1013E000CE01895F9E4FFC0112A2CE01895F9E4F04
:1013F00025E1FC0123A3CE01895F9E4F21EDFC0175
:1014000024A3CE01895F9E4FFC0115A2CE01895F06
:101410009E4F2EE2FC0126A3CE01895F9E4F28EB52
:10142000FC0127A3CE01895F9E4FFC0110A6CE01CF
:10143000895F9E4F27E4FC0121A7CE01895F9E4F63
:101440002FE9FC0122A7CE01895F9E4FFC0113A664
:10145000CE01895F9E4F20E6FC0124A7CE01895F63
:101460009E4F26E8FC0125A7CE01895F9E4FFC0117
:1014700016A6CE01895F9E4F29E7FC0127A7CE0162
:10148000895F9E4F2DE6FC0120ABCE01895F9E4F08
:10149000FC0111AACE01895F9E4F22E9FC0122AB1B
:1014A000CE01895F9E4F24E5FC0123ABCE01895F0D
:1014B0009E4FFC0114AACE01895F9E4F2BEAFC01CE
:1014C00025ABCE01895F9E4F2BE3FC0126ABCE01FD
:1014D000895F9E4FFC0117AACE01895F9E4F24ECC5
:1014E000FC0120AFCE01895F9E4F22E2FC0121AFBB
:1014F000CE01895F9E4FFC0112AECE01895F9E4FE7
:101500002DEDFC0123AFCE01895F9E4F29E0FC0148
:1015100024AFCE01895F9E4FFC0115AECE01895FDD
:101520009E4F26EFFC0126AFCE01895F9E4FFC0146
:1015300017AECE01895F9E4F805C9F4F20E1FC017A
:101540002083CE01895F9E4F8F5B9F4F2FEEFC0162
:101550002083CE01895F9E4F8E5B9F4FFC011082DE
:10156000CE01895F9E4F8D5B9F4F29E2FC01208356
:10157000CE01895F9E4F8C5B9F4F26EDFC0120833F
:10158000CE01895F9E4F8B5B9F4FFC011082CE0185
:10159000895F9E4F8A5B9F4F22E4FC012083CE012E
:1015A000895F9E4F895B9F4F2DEBFC012083CE010D
:1015B000895F9E4F885B9F4FFC011082CE01895F3F
:1015C0009E4F875B9F4F2BE5FC012083CE01895FF7
:1015D0009E4F865B9F4F24EAFC012083CE01895FEA
:1015E0009E4F855B9F4FFC011082CE01895F9E4F0D
:1015F000845B9F4F24E7FC012083CE01895F9E4FCF
:10160000835B9F4F2BE8FC012083CE01895F9E4FB7
:10161000825B9F4FFC011082CE01895F9E4F815BF0
:101620009F4F2DE8FC012083CE01895F9E4F805B98
:101630009F4F22E7FC012083CE01895F9E4F8F5A86
:101640009F4FFC011082CE01895F9E4F8E5A9F4FA3
:1016500026EAFC012083CE01895F9E4F8D5A9F4F61
:1016600029E5FC012083CE01895F9E4F8C5A9F4F54
:10167000FC011082CE01895F9E4F8B5A9F4F2FEB4A
:10168000FC012083CE01895F9E4F8A5A9F4F20E440
:10169000FC012083CE01895F9E4F895A9F4FFC0138
:1016A0001082CE01895F9E4F885A9F4F28EDFC0122
:1016B0002083CE01895F9E4F875A9F4F27E2FC010E
:1016C0002083CE01895F9E4F865A9F4FFC01108276
:1016D000CE01895F9E4F855A9F4F21EFFC012083E9
:1016E000CE01895F9E4F845A9F4F2EE0FC012083DC
:1016F0000E94AA028B819C81FC0180818034C1F50B
:10170000CE01079660E470E00E947E01CE0107964C
:1017100040E450E064E00E945202BE016C597E4FEA
:10172000CE01079620E040E40E94B701CE01079663
:1017300060E40E949C00CE01079660E40E9465016F
:101740009E01295F3E4FCE01079640E4B9010E94F9
:101750009801CE0107964FE150E060E470E00E94EE
:101760001D058B819C81FC0110820E94AC02C2CFBE
:10177000C1CFCF93DF93CDB7DEB72A970FB6F894DA
:10178000DEBF0FBECDBF9A87898789859A859A83E8
:1017900089831C821B8289819A81FC0180819181CD
:1017A000A281B381072E7FE0B695A795979587957F
:1017B0007A95D1F7702D9C0133278B819C81822BE8
:1017C000932B9C838B8389819A81FC0180819181F9
:1017D000A281B381072E77E1B695A7959795879556
:1017E0007A95D1F7702D80549109A109B1098D83A3
:1017F0009E83AF83B8878D819E81382F22278B816E
:101800009C81822B932B9C838B8389819A81FC0101
:1018100080819181A281B3818827B7FD8395992723
:10182000AA27BB279C0133272695379522278B8132
:101830009C81822B932B9C838B838B819C812A960A
:101840000FB6F894DEBF0FBECDBFDF91CF910895E4
:10185000CF93DF93CDB7DEB728970FB6F894DEBFEE
:101860000FBECDBF9E838D8378876F838F819885D0
:10187000AA2797FDA095BA2FAC01332722278D8187
:101880009E81AA2797FDA095BA2F822B932BA42B7C
:10189000B52B89839A83AB83BC8389819A81AB8181
:1018A000BC81BC01CD0128960FB6F894DEBF0FBEF7
:0818B000CDBFDF91CF91089537
:00000001FF
