:100000000C9434000C945A000C945B000C945C002B
:100010000C945D000C945E000C945F000C946000E6
:100020000C9461000C9462000C9463000C946400C6
:100030000C9465000C9466000C9467000C946800A6
:100040000C9469000C946A000C9459000C946B0099
:100050000C946C000C946D000C9477000C94780058
:100060000C9479000C947A0007EF0DBF07E00EBFE7
:100070000FEF04B90E9442000E944C0078940C9447
:100080004100FFCF02E004BD02E005BD01E307BD72
:1000900002E000936E0008950FEF00937A0003E0F2
:1000A00000937B0000E600937C000EEF00937E003F
:1000B00008951895189518951895189518951895E8
:1000C00018951895189518951895189518951895C8
:1000D000189518951895189518950F930FB70F93B5
:1000E0000091790005B90F910FBF0F9118951895E0
:0600F00018951895189503
:00000001FF
