:100000000C9434000C9458000C9459000C945A0031
:100010000C945B000C945C000C945D000C945E00EE
:100020000C945F000C9460000C9461000C946200CE
:100030000C9463000C9464000C9465000C946600AE
:100040000C9467000C9468000C9457000C946900A1
:100050000C946A000C946B000C947D000C947E0050
:100060000C947F000C94800007EF0DBF07E00EBFDB
:100070000FEF04B905B90E9443000E944D00789427
:100080000C944200FFCF02E004BD02E005BD02E394
:1000900007BD02E000936E00089508EF00937A0018
:1000A00003E000937B000EEF00937E000895189507
:1000B00018951895189518951895189518951895D8
:1000C00018951895189518951895189518951895C8
:1000D0001895189518950F931F930FB70F930090CD
:1000E000780000907900002405B113E0012705B9DC
:1000F0000F910FBF1F910F9118951895189518958E
:02010000189550
:00000001FF
