:100000000C9434000C943D000C943E000C943F0082
:100010000C9440000C9441000C9442000C9443005A
:100020000C9444000C9445000C9446000C9447003A
:100030000C9448000C9449000C944A000C944B001A
:100040000C944C000C944D000C943C000C944E000D
:100050000C944F000C9450000C9451000C945200DE
:100060000C9453000C9454000FEF0DBF07E00EBF2B
:100070000FEF0AB90C940C09189518951895189556
:100080001895189518951895189518951895189508
:1000900018951895189518951895189518951895F8
:1000A000189518951895189518958F929F92AF925C
:1000B000BF92EF92FF920F931F93CF93DF93EC01C8
:1000C00060E070E0CB010E9413048881882331F145
:1000D000E12CF12C00E010E06C81862F90E0A0E094
:1000E000B0E0982F882777276627906EED81FE81F4
:1000F000EE0DFF1D80809180A280B3806829792950
:100100008A299B290E9413040F5F1F4F84E0E80E89
:10011000F11C888190E008171907F4F2DF91CF9164
:100120001F910F91FF90EF90BF90AF909F908F9095
:10013000089508952F923F924F925F926F927F920F
:100140008F929F92AF92BF92CF92DF92EF92FF92E7
:100150000F931F93CF93DF93CDB7DEB760970FB6A2
:10016000F894DEBF0FBECDBF9A87898778876F83EB
:100170002DB73EB73E872D87DB011C968D919C9154
:100180001D979C01220F331F220F331FEDB7FEB7BF
:10019000E21BF30B0FB6F894FEBF0FBEEDBF2DB7F9
:1001A0003EB72F5F3F4F1901892B51F180E090E05E
:1001B000F12C00E010E0DF2CEF80F884880F991F0D
:1001C000880F991FD7011A962D913C911B97820F8A
:1001D000931F0E940504F801EE0FFF1FEE0FFF1F93
:1001E000E20DF31D6083718382839383D3940D2D7D
:1001F00010E0C801F7012485358502171307F0F2D6
:100200001C861B8600E010E0C12CD12C7601CB822D
:10021000DC82ED82FE82A7019601AF81B8858D91C7
:100220009C91A0E0B0E0281739074A075B0708F067
:10023000E4C2AB80BC80AF81B8851E968D919C9145
:100240001F978A0D9B1D0E940F04982E882309F486
:1002500062C0EF81F885268537858B819C81019668
:10026000820F931F0E940F04682F62956F70980190
:10027000220F331F220F331F90E0A985BA851596F0
:100280004D915C911697F101A4E06A9FE00DF11D7C
:100290001124BF018F70D101E4E08E9FA00DB11D2C
:1002A0001124892E7D0111C0F70180819181A281E5
:1002B000B381FA01E20FF31F80839183A283B3839A
:1002C00083942C5F3F4F891499F080FCEDCFFB01A4
:1002D00080819181A281B381FA01E20FF31F8083B3
:1002E0009183A283B38383942C5F3F4F8910EDCF1A
:1002F000982D0F5F1F4F9150090F111D2B813C81CD
:100300004D815E812E5F3F4F4F4F5F4F2B833C836C
:100310004D835E8382CFAF81B8851E962D913C912F
:100320001F978B819C810196820F931F0E940F045F
:10033000813009F454C108F406C1823009F098C034
:10034000C5010296AF81B8851E962D913C911F97ED
:10035000820F931F0E940F044801880E911CB3E086
:10036000AB0EB11CEF81F885868597858A0D9B1DA4
:100370000E940F042B853C85280F311D3A83298369
:10038000A40160E070E0EF81F88586819781A08507
:10039000B185481759076A077B0708F0E2C1A984AD
:1003A000BA84388A2F862F8038844B855C852981D2
:1003B0003A814217530709F44CC08016910609F49C
:1003C00048C0D50115968D919C911697F801EE0FB6
:1003D000FF1FEE0FFF1FAF85B8894D915D916D91A5
:1003E0007C91DC01AE0FBF1F4D935D936D937C93A9
:1003F00013970F5F1F4F6801E12CF12CD101169666
:100400004D905D906D907C901997C414D504E604CE
:10041000F70409F4B4C13496E80FF91F9F0116C020
:10042000D9014D935D936D937D939D010F5F1F4F98
:100430006801E12CF12CF10186819781A085B185BD
:10044000C816D906EA06FB0609F499C1081519056C
:1004500039F72F8438882B813C814D815E812C5F58
:100460003F4F4F4F5F4F2B833C834D835E83D5CEF1
:10047000982E9694CB80DC80ED80FE8032E0C30E17
:10048000D11CE11CF11C992009F452C03801660C02
:10049000771C660C771C5601812C1C830B83098505
:1004A0001A854F805884D2011E968D919C911F977A
:1004B0008A0D9B1D0E940F04D8011596ED91FC91A9
:1004C0001697E60DF71D982F92959F70D10124E0A5
:1004D000929FA00DB11D11244D915D916D917C9164
:1004E00040835183628373838F70D10134E0839F93
:1004F000A00DB11D11248D919D910D90BC91A02D49
:1005000084839583A683B78383944FEFA41AB40A98
:1005100058E0650E711C8910C6CF0B811C810E5FDF
:100520001F4F8FEF890D90E0880F991F080F191F3B
:10053000A7019601290D311D411D511D2B833C83BF
:100540004D835E836ACE60E070E0CB010E941304AD
:10055000A985BA858C91882369F17D01A12CB12CE4
:1005600000E010E0D70114966C91862F90E0A0E097
:10057000B0E0982F882777276627906ED7011596C9
:10058000ED91FC911697EA0DFB1D40805180628031
:10059000738064297529862997290E9413040F5FA7
:1005A0001F4FB4E0AB0EB11CF701808190E008173B
:1005B0001907C4F22B853C852F5F3F4F3C872B8763
:1005C0002B813C814D815E812E5F3F4F4F4F5F4FAE
:1005D0002B833C834D835E8300E010E01ECE2B8591
:1005E0003C854901A12CB12CEF81F8858281938152
:1005F000A481B58188169906AA06BB0608F08AC0B0
:10060000A80160E070E086819781A085B1854817D8
:1006100059076A077B0708F07DC0D101CD90DD90B6
:10062000ED90FC9016012701CB84DC84E984FA84E8
:100630006F8078841AC00F5F1F4FF301828193810E
:10064000A481B58188169906AA06BB0608F062C087
:10065000A80160E070E086819781A085B185481788
:1006600059076A077B0708F055C0D7011596ED9129
:10067000FC911697C801880F991F880F991FE80FE2
:10068000F91F2082318242825382F3018681978151
:10069000A085B185481759076A077B0761F660E0B6
:1006A00070E0CB010E941304D7018C91882349F19B
:1006B000A12CB12C00E010E0F7016481862F90E0BE
:1006C000A0E0B0E0982F882777276627906E0580F6
:1006D000F681E02DEA0DFB1D20813181428153819D
:1006E000622B732B842B952B0E9413040F5F1F4FDB
:1006F000F4E0AF0EB11CD7018C9190E008171907F8
:10070000DCF2BFEFCB1ADB0A01E010E04601A12CBE
:10071000B12C93CF2D853E850FB6F8943EBF0FBE0A
:100720002DBF4D855E850FB6F8945EBF0FBE4DBFE1
:1007300060960FB6F894DEBF0FBECDBFDF91CF91AC
:100740001F910F91FF90EF90DF90CF90BF90AF90EF
:100750009F908F907F906F905F904F903F902F90E1
:1007600008952F5F3F4F3A832983812C912CA984D0
:10077000BA84388A2F861F014B855C851ACE60E0CB
:1007800070E0CB010E941304D5018C91882349F1BC
:10079000612C712C00E010E0F5016481862F90E05F
:1007A000A0E0B0E0982F882777276627906E058015
:1007B000F681E02DE60DF71DC080D180E280F38048
:1007C0006C297D298E299F290E9413040F5F1F4FDA
:1007D000F4E06F0E711CD5018C9190E00817190799
:1007E000DCF22B853C852F5F3F4F3C872B8700E059
:1007F00010E0A90129813A81DCCD4D855E850FB6D7
:10080000F8945EBF0FBE4DBF8CCFFC016591759112
:10081000859194910895FC01859195910895FC012D
:100820008491089508950F9308E0990F0FB600FE84
:100830005E9800FC5E9A5F985F9A0A95B1F708E0AF
:10084000660F0FB600FE5E9800FC5E9A5F985F9A96
:100850000A95B1F708E0770F0FB600FE5E9800FC2E
:100860005E9A5F985F9A0A95B1F708E0880F0FB615
:1008700000FE5E9800FC5E9A5F985F9A0A95B1F759
:100880000F91089568092000FFFFFF0000FFFF009F
:10089000FF00FF000000FF00FFFF000000FF00005E
:1008A000FF00000000000000560000009000000063
:1008B000907700009077000090770000907700001C
:1008C0009077000090770000307702705E7700002C
:1008D0003077020002075C770000307702000200E8
:1008E0005C7700001277027002571A7700067300D7
:1008F000020C7702004C7700001277022002001CE5
:10090000770006700007087700067000074A770036
:1009100000127700067000271C770200020008779B
:1009200000067200074A7700001477020002071CD5
:100930007700067000270877022002024A7700003D
:100940001477020002001E7702700202087702701C
:1009500002001E7700067323372677000014770203
:100960007002000E77027002070E77001000077702
:1009700077777000271A7702732C770000147702BC
:100980007002000E77020002070E770010700077E9
:1009900077777200071A77022708770237227700E5
:1009A000001677020002070A77000670000710772A
:1009B000000E00007777770002187702722E77001A
:1009C000001677020002070A770230020012770051
:1009D0000E70000777777000187702272E770000D7
:1009E0001677022002040A77020002001277001034
:1009F00070000077777000072077000662222620BB
:100A00007700001677027002000A770200020014D5
:100A100077000E00000777720002147700167377D4
:100A20007777766777666666671C770000187702C7
:100A30000002070877022002001477000E70000001
:100A4000777000001C770010677667777777766796
:100A50001A770000187702000200087702300202BD
:100A60001477000E72000007700000187700066708
:100A70007676287700001877001070000777777770
:100A800070001677000C200000700000147700162C
:100A900027767766677777677777331C7700001A52
:100AA00077000E000077777770001877000A000053
:100AB0007700001277000C72776677666708660227
:100AC000671E7700001A77000E70000077777000BD
:100AD0001877000A70000770001677026702760C1C
:100AE00066024402451C7700001C770016000007D0
:100AF0007770000777777737107700080000770264
:100B00001477027602770A66024408551A770000C5
:100B10001C77000A70000047770C00107700065021
:100B20000007167702670866026402440A55000649
:100B3000577773147700001E770008000000770CC9
:100B40000002070C770008707000001477000E7622
:100B50007666666644450E55187700001E770008D5
:100B6000000000070C0000060770020877000A303A
:100B7000070000051277000C766666644445105540
:100B80000257167700001E77000A70000000700CF4
:100B90000000187000000777770000700000071051
:100BA0007700106666644455555551081100065586
:100BB0005555167700001E77000C720000077777F6
:100BC0000A000207080000107700007000000057BC
:100BD0000C77000E766755445555550E11000615D5
:100BE000555714770000207700260000770007771C
:100BF0007000000007700000000477700708000014
:100C0000187777777277777675455555551611149D
:100C10007700002077000E700770000000070800C2
:100C2000027008000006077777080002070A7702BB
:100C3000660855001A1111113333777331111111F0
:100C4000311712770000207700067007701000023D
:100C5000700C000277027008000A77002465555571
:100C6000555111111331111113377313311117121B
:100C700077000022770207120002070E00027008B8
:100C800000020708770008455555511211000A3730
:100C900071133311127700002277027508000207E2
:100CA000180002070800001005777777745555552E
:100CB000081102130C33000A373133311710770053
:100CC00000247708000270180002070A0000147759
:100CD000777774555551111111123300087733335A
:100CE00017107700002277027224000270080000BB
:100CF00012077777655555111111143300083773B2
:100D0000333110770000227702732400027008004C
:100D1000001007777775551111111833000A7733D2
:100D20003377370C7700002477240002070800008F
:100D30001A057777555111111333337777730E33C3
:100D4000000A37733377270C7700002477240002DA
:100D50000702700800000C77775511111308330251
:100D6000370C77000E733333733337730C7700000F
:100D70002477022024000270080000107777751194
:100D8000313333371677000A73773317730C7700D4
:100D90000024770220240002070800000E777771F4
:100DA000131133331A77000A37333777370A77004E
:100DB00000247702302E00000C7757313113330CAA
:100DC0007702271077027302330E7700001C77003A
:100DD0000A20777777702E00000C7757131133377E
:100DE0000E7702730E77027302330E7700001A77C4
:100DF000000C7000077777702E00000A77533313CA
:100E000037127702270C770008733377720A77005E
:100E1000001A77000C0000007777732C00000E0793
:100E20007513313377270C7700067277720E7702CD
:100E30003302370C7700001877000E730007007735
:100E400077732C00001067113333377277320E77C7
:100E5000027302730C77023302370C7700001877A5
:100E6000000E700000002777772C00000873133302
:100E7000330877027302371A7700103337773777E2
:100E800077777700001877000E73000000077777F8
:100E90002A00000A07711333370A7702730C7702AE
:100EA000370C77027302370C7700001A77000C00BA
:100EB00000000277772A00000A77133333370C7764
:100EC00002730A7702270C770010733777727777EF
:100ED000777700001A770800027702732800000A6B
:100EE0000773333333107702331677001073377775
:100EF000772777777700001A77000C7000000007DB
:100F00007212000008777777720E00000A77333389
:100F10003337167702271277000E337777732777E8
:100F20007700001A7702701A00000C17777737776E
:100F3000770A00000A07733333372C7702730237BE
:100F40000A7700001A7702701800001E077667778C
:100F50007377777770000037777333327702330A0D
:100F60007700001A7702720A0002700A0000080770
:100F7000776676567700001A7702721600027702BB
:100F8000675A7700001C770008000077700C000299
:100F90000702760A7702664A770006337777000001
:100FA0001C770008000077770C00027702670C7747
:100FB000026602274C7700001C771200000A0777B0
:100FC0007777760866507700001A77027010000075
:100FD00008077755770C6602670877023744770071
:100FE000001A7702701000000A7775775556106660
:100FF00002264877000016770008737777700A009A
:10100000001002077557755555460E660262022696
:10101000467700001677002437707027000000071D
:10102000105757757555544444460E6602620227A0
:101030004477000016770014727007272000000024
:1010400070770A5500185444444667777776666689
:1010500066624477000014770016002077770277E5
:1010600077000007350C550018444444466666670F
:101070007776666226427700001277001800737751
:101080002272007333700007310E55001844447704
:10109000777766677777766227407700000A77026E
:1010A000720E7700127200073337000771150C5566
:1010B0000018577777377777667777777626407790
:1010C00000000A7700083277723708770012720042
:1010D000773333700131110A55001A7773777773BC
:1010E0007777766777777776407700001A770022F0
:1010F00070077733333700311111555155777755D4
:10110000550A7702674877000000347777777322B3
:101110002327777777737777707777333333703127
:1011200011111555510A55025750770000087700E4
:1011300006207707127700083333313708110A5534
:1011400056770000087702000227147700067337ED
:10115000330A1102170E770008377777370A7702BC
:10116000273C7700000877027016770014733773F6
:1011700011113311111117107702734A77000020F3
:1011800077001627737711311377773311175A7752
:1011900000001E7700182772777771131177676642
:1011A00073175A7700001C770018727777777327C8
:1011B0003173177777325C7700002877000E73372A
:1011C00071377777375A7700002077023708770032
:1011D0000C7377317777735A7700002077001637D2
:1011E000777737777777673777735A7700001E7787
:1011F00000127377777733777777726077000036EE
:101200007702735877000090770000907700009085
:101210007700009077000100CF93DF93CDB7DEB762
:10122000C755D2400FB6F894DEBF0FBECDBF80E9E0
:10123000CF5ADD4F8883C155D240CE010196CA5A9C
:10124000DD4F99838883C655D24082E0CB5ADD4F6B
:101250008883C555D24084E898E00E940B04CF5B98
:10126000DD4F99838883C154D24086E898E00E947C
:101270000B049695879596958795C35BDD4F99836B
:101280008883CD54D24088EA98E00E940504CD5B63
:10129000DD4F688379838A839B83C354D2408CEA71
:1012A00098E00E940504C95BDD4F688379838A83D7
:1012B0009B83C754D24088E898E00E941204C55B23
:1012C000DD4F99838883CB54D24080EB98E00E9415
:1012D0001204C15BDD4F99838883CF54D240BE0195
:1012E0006F5B7D4FCE018F5A9D4F0E949A00F7CFC2
:00000001FF
