:100000000C9468000C9470000C9471000C947200B5
:100010000C9473000C9474000C9475000C9476008E
:100020000C9477000C9478000C9479000C947A006E
:100030000C947B000C947C000C947D000C947E004E
:100040000C947F000C9480000C946F000C94810041
:100050000C9482000C9483000C9484000C94850012
:100060000C9486000C94870091E088E371E060E1D5
:1000700051E044E331E020E30E943F00F5CFFF93DD
:10008000EF93DF93CF9300D09F938F937F936F93E2
:10009000FA0185919591659175919F938F937F93C7
:1000A0006F93F90185919591659175919F938F93C8
:1000B0007F936F93DEB7CDB7FC85EB8595918591E6
:1000C0002E96DEBFCDBFCF91DF91EF91FF910895C6
:1000D00007E00EBF07EF0DBF00E80AB9C5CF1895BE
:1000E00018951895189518951895189518951895A8
:1000F0001895189518951895189518951895189598
:100100001895189518951895189518951895189587
:10011000FF00FFFFFF0000FFFF00FF00FF000000E7
:100120000000FFFF000000FF0000FF0000000000D3
:10013000000048000000480000023305000A713347
:10014000171060000000022F00000E204737777361
:1001500077100000000217000008753735300A00DC
:100160000016040405053777717777706100000089
:10017000021600023702370877001A040001020253
:100180001206073173773737000000021600002887
:1001900077773777777773470605040521617353BF
:1001A00034377370000000021500002837353533EE
:1001B0007373777707070616040073121537135108
:1001C0000000000215000010717373753537173782
:1001D0000C00000C131333313732000000021500FD
:1001E000001037312133335377770C00000C633123
:1001F0001113717100000002160000103531313109
:10020000731317300A00000E0747333313373000DB
:100210000000021600001073131353317776700A32
:1002200000000C7767474371770000000217000059
:100230000E373733176676770A00000E67477676F3
:10024000767310000000021A00002235666477778A
:100250006000000006777767677646770000000247
:100260001A00002266046767675000000067747612
:100270007656477473000000021A00002246767416
:1002800076776000000676466476767677700000B2
:1002900000021A0000222746476476000000074249
:1002A00046476565646760000000021A000020464A
:1002B0007676777700000076642424676767770096
:1002C0000000021A00001476467777776000047603
:1002D00044084602670260000000021A00001E6423
:1002E00064676676776007636052466767740000EC
:1002F000000219000022660425211130113101117C
:1003000013113133310103000000021900002413DE
:1003100033131131110100100000010101331331B9
:100320003100000002160000282133113111310084
:1003300011010311111110010013131133000000FA
:1003400002140000163113111311131001011011C2
:100350000813000E101131111311300000000211AA
:100360000000301131131303113313131310101045
:10037000111010111111101111331000000002148E
:1003800000002E31313110001377111111101000BF
:1003900011111131111001011310000000021000A1
:1003A000003231131333110003131367211111119C
:1003B0003333131111100000101130000000020E31
:1003C00000003413333333111000313720346166A9
:1003D00037671111113111011000011130000000B7
:1003E000020D0000341311003331000310063144B4
:1003F000241317673131333311101000000113003B
:100400000000020D00003433000000130073700080
:1004100044004333113133131311333131000001E0
:1004200017000000020B00003613000001311133E9
:1004300033736760404407631731753533013311F7
:100440000000111300000002090000381310000022
:1004500000123773731773704606734773167673FB
:100460000012111001011131000000020700000606
:100470003031300800002C073333231564606431B9
:100480003667777774017133100011331000000064
:1004900002050002300A00002E0161003737130305
:1004A0006444461111647333700600013313131151
:1004B00000000002080002100800002E610310373F
:1004C000733747273774017673777363120000130D
:1004D0001310100000000207000212080000306133
:1004E000101013737306333736604613333373308B
:1004F00041000001001130000000021100002C71C9
:100500000101030007347373334467321321313020
:10051000040000001100000002070002300C00007F
:100520002A101000033347377764631331333333B2
:1005300000070001031000000002060002100A007C
:10054000002406107010000030010377643312306D
:10055000123033300000000215000020100110009E
:10056000101001117767303133313333000000024E
:100570001500001E1000200127731200017773334D
:100580003333330000000219000016101011777782
:1005900030100377303000000002050002100E001A
:1005A00000160710000000077773210067000000A5
:1005B000021E00000E307777710301770000000201
:1005C0001D00001010133177700100300000000290
:1005D000180000162500000300007310773010008B
:1005E00000000219000016300012100700021375F7
:1005F0002120000000021B0000146400006761312C
:100600007772131100000002190000141077010026
:100610007750007771130000000219000016207255
:1006200000500461312773203300000002190000DC
:1006300016104501374033031777101000000002F1
:100640001A00001437337277353730777370000033
:10065000000216000018300477313133332337336A
:100660003733000000021600001A333330323321D2
:10067000337337373373300000000217000223084A
:1006800033000E3233773327333300000002180073
:100690000833000E3737313371337300000002180E
:1006A000000016373030307333323333733000008C
:1006B0000002180000143330003003133336333394
:1006C000000000021800001430030030033233131E
:1006D00033300000000218000012330333000333EC
:1006E0001233330000000219000010300000033301
:1006F00033333300000002190000103300001321CF
:10070000233330000000021A00000E33330333336A
:100710003330000000021B000A33000000021D00FD
:08072000000633330300010061
:00000001FF
