:10000000CF93DF93CDB7DEB707E00EBF07EF0DBF8D
:100010000C942A00DF91CF910895CF93DF93CDB751
:10002000DEB728970FB6F894DEBF0FBECDBF9A8318
:1000300089837C836B835E834D8338872F8380E045
:1000400090E028960FB6F894DEBF0FBECDBFDF91CB
:10005000CF910895CF93DF93CDB7DEB728970FB632
:10006000F894DEBF0FBECDBF81E090E09A83898314
:1000700082E090E09C838B8383E090E09E838D837D
:1000800084E090E098878F839E01295F3F4FAE0107
:100090004B5F5F4FCE010396BC01CE0101960E94DB
:0400A0000D00F2CF8E
:00000001FF
